:100000000C945F000C9487000C9487000C9487007C
:100010000C9487000C9487000C9487000C94870044
:100020000C9487000C9487000C9487000C94870034
:100030000C9487000C9487000C9487000C94870024
:100040000C9434060C9487000C9484030C94C00325
:100050000C9487000C9487000C9487000C94870004
:100060000C9487000C948700000000070002010038
:100070000003040600000000000000000102040864
:100080001020408001020408102001020408102002
:10009000040404040404040402020202020203032E
:1000A0000303030300000000250028002B000000CC
:1000B0000000240027002A007B017B048701112413
:1000C0001FBECFEFD8E0DEBFCDBF11E0A0E0B1E0B2
:1000D000EAE7F2E102C005900D92AC35B107D9F71D
:1000E00012E0ACE5B1E001C01D92A032B107E1F72A
:1000F00010E0CCEBD0E004C02297FE010E94DD06A8
:10010000C83BD107C9F70E94DB020C9430090C945C
:10011000000040E052EC61E070E08CE691E00E946B
:10012000FB0361E08DE00E94B90161E08DE00C9479
:10013000F10161E08DE00E94B90161E08DE00C9475
:10014000F1016AE071E08CE691E00C94C70261E293
:1001500071E085E691E00E947A0510925C011092B0
:100160005D010895BC018CE691E00E94B3020C94FD
:10017000A700CF93DF93EC0161E171E00E940106DB
:10018000882321F0DF91CF910C94990065E171E013
:10019000CE010E940106882321F0DF91CF910C94BB
:1001A000A100DF91CF910895FF920F931F93CF93FA
:1001B000DF93CDB7DEB765970FB6F894DEBF0FBEFD
:1001C000CDBF01E08CE691E00E94E802892B09F4A2
:1001D0006CC08CE691E00E941703182F482F55271A
:1001E00047FD5095209106013091070142175307B2
:1001F00049F3F09009018F1103C000935D01E2CF34
:100200008091080118131EC000935C0180915D016C
:100210008111D8CF6AE171E0CE010F960E943C05B2
:10022000BE01615F7F4FCE0108960E947005612F6D
:10023000CE0108960E94F00562E271E00E94D305AB
:100240006F2D1BC0612F85E691E00E94C005809153
:100250005D018111B7CF1091090160E371E0CE011A
:100260000F960E943C05BE01615F7F4FCE0108964C
:100270000E947005612FCE0108960E94F005BC0116
:10028000CE0101960E947005CE0101960E94B20037
:10029000CE0101960E94CB04CE0108960E94CB04A9
:1002A000CE010F960E94CB048DCF80915C018823F4
:1002B000B1F065E671E08CE691E00E94B30265E67C
:1002C00071E0CE0101960E947005CE0101960E9458
:1002D000B900CE0101960E94CB040E94A70065964A
:1002E0000FB6F894DEBF0FBECDBFDF91CF911F9147
:1002F0000F91FF90089561E271E085E691E00E9420
:100300003C0561E271E08EE591E00C943C058EE5E0
:1003100091E00E94CB0485E691E00C94CB048330FD
:1003200069F028F48130A1F0823011F514C08630D4
:10033000B1F08730C1F08430D9F404C080918000DE
:100340008F7703C0809180008F7D80938000089517
:1003500084B58F7702C084B58F7D84BD0895809168
:10036000B0008F7703C08091B0008F7D8093B00084
:100370000895CF93DF9390E0FC01E458FF4F449140
:10038000FC01E057FF4F8491882341F190E0880FF2
:10039000991FFC01E255FF4F25913491D9018C55ED
:1003A0009F4FFC0185919491C82FD92F9FB7F89446
:1003B0008C91611106C0409584238C93888184239D
:1003C00008C0623041F4242F209582238C938881C9
:1003D000842B888302C0842B8C939FBFDF91CF91A5
:1003E00008950F931F93CF93DF931F92CDB7DEB77E
:1003F000282F30E0F901E859FF4F8491F901E458C2
:10040000FF4F1491F901E057FF4F04910023D1F001
:10041000882321F069830E948F016981E02FF0E039
:10042000EE0FFF1FEC55FF4F85919491DC019FB7B4
:10043000F8948C91611103C01095812301C0812B28
:100440008C939FBF0F90DF91CF911F910F910895D3
:10045000CF92DF92EF92FF920F931F93CF93DF9390
:100460006C01EB017A01E60EF71E00E010E00BC014
:100470006991D601ED91FC910190F081E02DC601CA
:100480000995080F191FCE15DF0591F7C801DF91F7
:10049000CF911F910F91FF90EF90DF90CF90089533
:1004A000DB010D900020E9F7AD0141505109461BD9
:1004B000570BDC01ED91FC910280F381E02D099452
:1004C000AF92BF92CF92DF92EF92FF920F931F9362
:1004D000CF93DF937C016B0100E010E0C0E0D0E03F
:1004E00011C0D701ED91FC91A080B180B801C60187
:1004F0000E942306682FC701F5010995C80FD91F6F
:100500000F5F1F4FD60114968D919C911597081778
:10051000190738F3CE01DF91CF911F910F91FF9012
:10052000EF90DF90CF90BF90AF900895DC01ED91F8
:10053000FC910190F081E02D09940F931F93CF93CC
:10054000DF93EC016DE00E9496028C016AE0CE011F
:100550000E9496029C01200F311FC901DF91CF91AB
:100560001F910F9108950F931F93CF93DF93EC0189
:100570000E9460028C01CE010E949D029C01200F0E
:10058000311FC901DF91CF911F910F9108950F93F2
:100590001F93CF93DF93EC010E9450028C01CE0198
:1005A0000E949D029801280F391FC901DF91CF9148
:1005B0001F910F9108950E947E060E948900C7EB4B
:1005C000D3E00E94D4002097E1F30E94B703F9CF53
:1005D000FC0184859585FC01E05CFF4F2081318121
:1005E000FC01EE5BFF4F80819181281B390B2F733B
:1005F0003327C9010895FC0184859585FC01E05CE1
:10060000FF4F40815181FC01EE5BFF4F2081318122
:100610004217530741F00190F081E02DE80FF91FD8
:10062000208130E002C02FEF3FEFC9010895FC01A7
:1006300084859585FC01E05CFF4F40815181FC0180
:10064000EE5BFF4F208131814217530781F0A0817B
:10065000B181A80FB91F8C91208131812F5F3F4F4D
:100660002F73332731832083282F30E002C02FEFF0
:100670003FEFC9010895FC0186859785FC01E05C88
:10068000FF4FDC01AE5BBF4F408151812D913C910A
:10069000119742175307C1F70895CF93DF93FC01D9
:1006A00086859785DC01A05CBF4F2D913C91119709
:1006B0002F5F3F4F2F733327EC01CE5BDF4F488115
:1006C000598124173507D9F30D90BC91A02DA80F9F
:1006D000B91F6C93A685B785A05CBF4F11963C935C
:1006E0002E93A689B7892C9181E090E0058C02C0F9
:1006F000880F991F0A94E2F7282B2C9381E090E051
:10070000DF91CF91089508951F920F920FB60F9227
:1007100011242F933F934F938F939F93EF93FF93C6
:100720004091C60080910F029091100201968F7344
:10073000992720911102309112028217930759F0E4
:10074000E0910F02F0911002E153FE4F408390932D
:10075000100280930F02FF91EF919F918F914F9123
:100760003F912F910F900FBE0F901F9018958CE620
:1007700091E00E94E802892B11F00C948303089504
:100780001F920F920FB60F9211242F933F938F93C6
:100790009F93EF93FF932091CB013091CC018091F7
:1007A000CD019091CE012817390731F48091C10015
:1007B0008F7D8093C10014C0E091CD01F091CE01F6
:1007C000E557FE4F20818091CD019091CE01019699
:1007D0008F7399279093CE018093CD012093C6000B
:1007E000FF91EF919F918F913F912F910F900FBEAD
:1007F0000F901F901895CF92DF92EF92FF92CF93B8
:10080000DF93EC016A017B01411581EE5807610518
:100810007105F9F0EC89FD8981E090E00E8C02C051
:10082000880F991F0A94E2F7808360E079E08DE3F6
:1008300090E0A70196010E94B906215031094109B3
:1008400051095695479537952795211580E1380729
:1008500098F0EC89FD89108260E874E88EE190E000
:10086000A70196010E94B906215031094109510999
:100870005695479537952795E889F9893083EA8910
:10088000FB892083EE89FF89408181E090E09C0113
:100890000A8C02C0220F331F0A94E2F7422B4083D6
:1008A000EE89FF8940819C010B8C02C0220F331F0F
:1008B0000A94E2F7422B4083EE89FF8940819C0134
:1008C0000C8C02C0220F331F0A94E2F7422B4083A4
:1008D000EE89FF8920810D8C02C0880F991F0A9430
:1008E000E2F7809582238083DF91CF91FF90EF9094
:1008F000DF90CF90089510926F0110926E0188EEF4
:1009000093E0A0E0B0E08093700190937101A09318
:100910007201B09373018FE491E090936D01809325
:100920006C018FEC91E090937901809378018BE8D2
:1009300091E090937B0180937A0185EC90E0909315
:100940007D0180937C0184EC90E090937F01809303
:100950007E0180EC90E0909381018093800181EC96
:1009600090E0909383018093820186EC90E09093D5
:1009700085018093840184E08093860183E08093E5
:10098000870187E08093880185E08093890181E079
:1009900080938A010895FC01808191810C947C07E9
:1009A000CF93DF93EC0188819981009711F00E9429
:1009B0007C07198218821D821C821B821A82DF9199
:1009C000CF9108950F931F93CF93DF93EC018B0189
:1009D0006F5F7F4F888199810E941808009731F0DE
:1009E000998388831B830A8381E001C080E0DF91C3
:1009F000CF911F910F910895CF93DF93EC018881E0
:100A00009981892B31F08A819B818617970708F09D
:100A10000CC0CE010E94E204882349F08C819D81A4
:100A2000892B19F4E881F981108281E001C080E00E
:100A3000DF91CF910895EF92FF920F931F93CF9381
:100A4000DF93EC017B018A01BA010E94FC04811151
:100A500004C0CE010E94D00407C01D830C83B701DF
:100A6000888199810E94F208CE01DF91CF911F9178
:100A70000F91FF90EF900895DC0111961C921E9249
:100A800013961C921E92129715961C921E92149702
:100A900016961C926115710559F0DB010D9000202E
:100AA000E9F7AD0141505109461B570B0C941B054A
:100AB0000895CF93DF93EC01FB018617970761F050
:100AC000608171816115710529F0448155810E9411
:100AD0001B0502C00E94D004CE01DF91CF91089582
:100AE000FC011182108213821282158214821682F6
:100AF0000C945905CF93DF93D82FC92F6115710539
:100B000061F0DB010D900020E9F7AD014150510982
:100B1000461B570B0E941B0502C00E94D0048D2F5C
:100B20009C2FDF91CF910895EF92FF920F931F9327
:100B3000CF93DF93EC017B010C811D816115710561
:100B400011F480E016C04115510591F0040F151FF6
:100B5000B8010E94FC048823A1F3288139818C818B
:100B60009D81B701820F931F0E94F2081D830C83A1
:100B700081E0DF91CF911F910F91FF90EF90089549
:100B8000CF93DF9300D0CDB7DEB769831A8241E0FF
:100B900050E0BE016F5F7F4F0E9494050F900F9051
:100BA000DF91CF910895CF93DF93D82FC92F61158F
:100BB000710569F0DB010D900020E9F7AD014150AE
:100BC0005109461B570B0E949405811104C08D2FBB
:100BD0009C2F0E94D0048D2F9C2FDF91CF910895E0
:100BE000CF93DF93D82FC92F0E94C005811104C075
:100BF0008D2F9C2F0E94D0048D2F9C2FDF91CF91A1
:100C00000895DC0114962D913C911597232B39F40E
:100C100081E06115710511F0FB0108C00895DC0148
:100C2000ED91FC916115710529F481E09081992382
:100C300049F007C0CF010E94E9089C0181E0232B05
:100C400009F080E00895FC01248135816217730763
:100C500048F480819181009729F0FC01E60FF71F8D
:100C60008081089580E008951F920F920FB60F9231
:100C700011242F933F938F939F93AF93BF938091B2
:100C8000130290911402A0911502B09116023091B6
:100C90001B02232F2D5F2D3720F40196A11DB11DBE
:100CA00005C0232F2A570296A11DB11D20931B02B8
:100CB0008093130290931402A0931502B09316022E
:100CC0008091170290911802A0911902B0911A0216
:100CD0000196A11DB11D8093170290931802A09355
:100CE0001902B0931A02BF91AF919F918F913F91DA
:100CF0002F910F900FBE0F901F901895789484B588
:100D0000826084BD84B5816084BD85B5826085BD07
:100D100085B5816085BDEEE6F0E0808181608083ED
:100D2000E1E8F0E0108280818260808380818160D0
:100D30008083E0E8F0E0808181608083E1EBF0E097
:100D4000808184608083E0EBF0E08081816080833B
:100D5000EAE7F0E080818460808380818260808324
:100D60008081816080838081806880831092C1004F
:100D70000895A1E21A2EAA1BBB1BFD010DC0AA1FDC
:100D8000BB1FEE1FFF1FA217B307E407F50720F0F4
:100D9000A21BB30BE40BF50B661F771F881F991F6F
:100DA0001A9469F760957095809590959B01AC01B8
:100DB000BD01CF010895EE0FFF1F0590F491E02DC6
:100DC00009940F931F93CF93DF938230910510F412
:100DD00082E090E0E0911E02F0911F0220E030E0FE
:100DE000C0E0D0E023C04081518148175907A8F0E6
:100DF0004817590761F482819381209719F09B83EA
:100E00008A832EC090931F0280931E0229C0211551
:100E1000310529F04217530710F0A90102C0BE01A5
:100E2000DF0102811381EF019A01F8013097D9F6B1
:100E30002115310509F1281B390B2430310590F4B7
:100E400012968D919C9113976115710521F0FB010C
:100E50009383828304C090931F0280931E02FD013E
:100E6000329644C0FD01E20FF31F8193919322500B
:100E700031092D933C933AC020911C0230911D0200
:100E8000232B41F4209102013091030130931D0284
:100E900020931C02209100013091010121153105A0
:100EA00041F42DB73EB74091040150910501241B38
:100EB000350BE0911C02F0911D02E217F307A0F43C
:100EC0002E1B3F0B2817390778F0AC014E5F5F4FA0
:100ED0002417350748F04E0F5F1F50931D024093B3
:100EE0001C028193919302C0E0E0F0E0CF01DF911A
:100EF000CF911F910F910895EF92FF920F931F933F
:100F0000CF93DF93009709F48EC0DC0112971396FC
:100F10001C921E921297E0901E02F0901F02E114A4
:100F2000F10489F42D913C911197280F391F80917C
:100F30001C0290911D028217930789F5B0931D0240
:100F4000A0931C0270C0E70120E030E001C0EA017C
:100F5000CA17DB0738F44A815B819E0141155105B0
:100F6000B1F722C0AC0142505109FA01D383C283C8
:100F700000811181BC01600F711F6C177D0761F446
:100F800068817981600F711F6E5F7F4F718360830D
:100F90006A817B81738362832115310529F4B093C3
:100FA0001F02A0931E023FC0F901B383A283E9018F
:100FB00049915991C40FD51FAC17BD0771F4DC01DD
:100FC0009E918E91840F951F029691838083129635
:100FD0008D919C91139793838283A0E0B0E002C02F
:100FE000D7017C01F701828193810097C9F7C7017E
:100FF000029620813181820F931F20911C02309133
:101000001D022817390779F4109729F410921F024E
:1010100010921E0204C013961C921E921297F09218
:101020001D02E0921C02CDB7DEB7E6E00C94210968
:10103000A0E0B0E0EEE1F8E00C94FF08EC010097CE
:1010400029F4CB010E94E106EC01B4C0DC01A60F3B
:10105000B71FFC013297AE17BF0718F4C0E0D0E00D
:10106000A9C00081118106171707B0F005301105DE
:1010700008F4A0C0C80104978617970708F49AC01F
:1010800002501109061B170B0D931D93718360838A
:10109000CD010E947C078EC06B01C01AD10A7C0171
:1010A000E00EF11EE0911E02F0911F0220E030E000
:1010B00080E090E048C0EE15FF05D1F5808091807A
:1010C000540142E0A40EB11CAC14BD0488F17401BB
:1010D000EC18FD08670122E0C20ED11C9E012250CF
:1010E000310945E0C416D10478F04281538113964A
:1010F0005C934E9312971196FC92EE92F9017183D4
:1011000060833A2F2B2F09C00E5F1F4F080D191D4A
:10111000D9010D931C9332812381009721F0FC01AA
:101120003283238347C030931E0220931F0242C0A4
:10113000808191812817390708F49C0152814381ED
:10114000CF01E52FF42F309709F0B5CF80911C0225
:1011500090911D028E159F05F1F426173707D8F4DC
:101160008091000190910101009741F48DB79EB7E5
:101170002091040130910501821B930BA817B90738
:1011800008F06CCFB0931D02A0931C02FE013297B1
:10119000718360830FC0CB010E94E1067C01009740
:1011A00009F45CCFA801BE010E94E008CE010E94B4
:1011B0007C07E701CE01CDB7DEB7ECE00C941B094C
:1011C000FB01DC0102C001900D9241505040D8F764
:1011D0000895FB01DC018D91019080190110D9F374
:1011E000990B0895FB01DC0101900D920020E1F7BD
:1011F00008952F923F924F925F926F927F928F92BB
:101200009F92AF92BF92CF92DF92EF92FF920F9395
:101210001F93CF93DF93CDB7DEB7CA1BDB0B0FB69F
:10122000F894DEBF0FBECDBF09942A88398848885C
:101230005F846E847D848C849B84AA84B984C884F2
:10124000DF80EE80FD800C811B81AA81B981CE0FE9
:10125000D11D0FB6F894DEBF0FBECDBFED010895CE
:1012600010E0CCEBD0E004C0FE010E94DD06229627
:0A127000CE3BD107C9F7F894FFCF79
:10127A000000200220000A007D7B54455354495344
:10128A00006C65640074657374004552524F523A9B
:10129A00200020206D6574206265666F72652000EB
:1012AA004552524F523A20636F6E74656E74206DC8
:1012BA006574206265666F72652000000000004D4B
:0C12CA00032802E8021703FB023B0300AC
:00000001FF
