:100000000C9462000C948A000C948A000C948A0070
:100010000C948A000C948A000C948A000C948A0038
:100020000C948A000C948A000C948A000C948A0028
:100030000C948A000C948A000C948A000C948A0018
:100040000C94F6000C948A000C9458020C948A02CA
:100050000C948A000C948A000C948A000C948A00F8
:100060000C948A000C948A00000000080002010031
:100070000003040700000000000000000102040863
:100080001020408001020408102001020408102002
:10009000040404040404040402020202020203032E
:1000A00003030303000000002300260029000000D2
:1000B0000000250028002B0000000000240027007D
:1000C0002A00BA0211241FBECFEFD8E0DEBFCDBF99
:1000D00011E0A0E0B1E0E0E8F9E002C005900D9287
:1000E000A033B107D9F721E0A0E3B1E001C01D9230
:1000F000AB3DB207E1F710E0C4ECD0E004C02297BA
:10010000FE010E94BA04C23CD107C9F70E9449020D
:100110000C94BE040C94000026E040E052EC61E038
:1001200070E08EE391E00E94E00361E08DE00E94C8
:10013000B00160E082E00E94B00161E08DE00E94C9
:10014000E90183B7816083BF83B7817F846083BF08
:1001500008950F931F93CF93DF9382E00E941F02B5
:10016000EC010E9440010091300110913101209179
:10017000320130913301601B710B820B930B653F91
:1001800071408105910568F1CD2BD9F08091340142
:10019000811127C081E0809334010E944001609367
:1001A000300170933101809332019093330160E00C
:1001B00071E08EE391E0DF91CF911F910F910C944C
:1001C00084040E9440016A5E714081099109609334
:1001D000300170933101809332019093330110927A
:1001E0003401DF91CF911F910F9108951F920F92CB
:1001F0000FB60F9211242F933F938F939F93AF933A
:10020000BF938091360190913701A0913801B09150
:1002100039013091350123E0230F2D3720F4019669
:10022000A11DB11D05C026E8230F0296A11DB11D19
:10023000209335018093360190933701A0933801C4
:10024000B093390180913A0190913B01A0913C011A
:10025000B0913D010196A11DB11D80933A0190938B
:100260003B01A0933C01B0933D01BF91AF919F91A1
:100270008F913F912F910F900FBE0F901F90189567
:100280002FB7F89460913601709137018091380151
:10029000909139012FBF0895789484B5826084BD10
:1002A00084B5816084BD85B5826085BD85B581607A
:1002B00085BDEEE6F0E0808181608083E1E8F0E0DA
:1002C0001082808182608083808181608083E0E809
:1002D000F0E0808181608083E1EBF0E080818460E8
:1002E0008083E0EBF0E0808181608083EAE7F0E0EA
:1002F000808184608083808182608083808181604E
:1003000080838081806880831092C100089583304B
:1003100081F028F4813099F08230A1F0089587307F
:10032000A9F08830B9F08430D1F4809180008F7DBD
:1003300003C0809180008F7780938000089584B5FA
:100340008F7702C084B58F7D84BD08958091B00001
:100350008F7703C08091B0008F7D8093B0000895A7
:10036000CF93DF9390E0FC01E458FF4F2491FC0110
:10037000E057FF4F8491882349F190E0880F991F3F
:10038000FC01E854FF4FA591B49182559F4FFC01A9
:10039000C591D4919FB7611108C0F8948C912095B4
:1003A00082238C93888182230AC0623051F4F894AE
:1003B0008C91322F309583238C938881822B888374
:1003C00004C0F8948C91822B8C939FBFDF91CF91C6
:1003D00008950F931F93CF93DF931F92CDB7DEB78E
:1003E000282F30E0F901E859FF4F8491F901E458D2
:1003F000FF4F1491F901E057FF4F04910023C9F01A
:10040000882321F069830E9487016981E02FF0E051
:10041000EE0FFF1FE255FF4FA591B4919FB7F894DF
:100420008C91611103C01095812301C0812B8C93A5
:100430009FBF0F90DF91CF911F910F910895CF93A0
:10044000DF93282F30E0F901E859FF4F8491F9013B
:10045000E458FF4FD491F901E057FF4FC491CC23EA
:1004600091F081110E948701EC2FF0E0EE0FFF1F49
:10047000EC55FF4FA591B4912C912D2381E090E094
:1004800021F480E002C080E090E0DF91CF910895F8
:1004900008950E944C010E9448020E948C00CAE20A
:1004A000D3E00E94A9002097E1F30E942A03F9CF2C
:1004B0001F920F920FB60F9211242F938F939F9339
:1004C000EF93FF93E0914E01F0914F018081E09115
:1004D0005401F091550182FD12C090818091570125
:1004E0008F5F8F7320915801821751F0E09157016F
:1004F000F0E0E25CFE4F958F8093570101C0808150
:10050000FF91EF919F918F912F910F900FBE0F90C0
:100510001F9018951F920F920FB60F9211242F93D0
:100520003F934F935F936F937F938F939F93AF937B
:10053000BF93EF93FF938EE391E00E943803FF9106
:10054000EF91BF91AF919F918F917F916F915F914B
:100550004F913F912F910F900FBE0F901F901895C4
:100560008EE391E00E94FD0221E0892B09F420E056
:10057000822F0895109241011092400188EE93E07D
:10058000A0E0B0E08093420190934301A093440126
:10059000B093450182E191E090933F0180933E0149
:1005A00085EC90E090934B0180934A0184EC90E0BD
:1005B00090934D0180934C0180EC90E090934F011B
:1005C00080934E0181EC90E0909351018093500113
:1005D00082EC90E0909353018093520186EC90E07E
:1005E0009093550180935401109257011092580135
:1005F0001092590110925A010895FC01818D228DAB
:1006000090E0805C9F4F821B91098F73992708951A
:10061000FC01918D828D981731F0828DE80FF11DCC
:10062000858D90E008958FEF9FEF0895FC01918DE7
:10063000828D981761F0828DDF01A80FB11D5D9644
:100640008C91928D9F5F9F73928F90E008958FEFB2
:100650009FEF089580EB92E0892B49F080E090E0D5
:10066000892B29F00E94B00281110C94000008959A
:10067000FC01848DDF01A80FB11DA35ABF4F2C913F
:10068000848D90E001968F739927848FA689B7890E
:100690002C93A089B1898C9180648C93938D848DE7
:1006A000981306C00288F389E02D80818F7D8083B6
:1006B0000895CF93DF93EC01888D8823C9F0EA89F0
:1006C000FB89808185FD05C0A889B9898C9186FD4B
:1006D0000FC00FB607FCF5CF808185FFF2CFA88948
:1006E000B9898C9185FFEDCFCE010E943803E7CF09
:1006F000DF91CF910895CF92DF92FF920F931F93D6
:10070000CF93DF931F92CDB7DEB76C0181E0D601A6
:1007100058968C9358975B969C915B975C968C91BE
:100720005C97981307C05096ED91FC91519780818A
:1007300085FD2EC0F601038D10E00F5F1F4F0F7374
:100740001127F02EF601848DF81211C00FB607FCA8
:10075000F9CFD6015096ED91FC915197808185FF9C
:10076000F1CFC60169830E9438036981EBCF838D85
:10077000E80FF11DE35AFF4F6083D6015B960C939F
:100780005B975296ED91FC915397808180620CC0EB
:10079000D6015696ED91FC91579760835096ED9156
:1007A000FC91519780818064808381E090E00F907C
:1007B000DF91CF911F910F91FF90DF90CF9008951F
:1007C000BF92CF92DF92EF92FF92CF93DF93EC0133
:1007D0006A017B01B22EE889F98982E080834115A4
:1007E00081EE580761057105A1F060E079E08DE3C5
:1007F00090E0A70196010E94960421503109410919
:1008000051095695479537952795211580E1380769
:1008100098F0E889F989108260E874E88EE190E048
:10082000A70196010E9496042150310941095109FE
:100830005695479537952795EC85FD853083EE8550
:10084000FF852083188EEC89FD89B082EA89FB89B7
:10085000808180618083EA89FB89808188608083D0
:10086000EA89FB89808180688083EA89FB898081AD
:100870008F7D8083DF91CF91FF90EF90DF90CF90BD
:10088000BF900895CF92DF92EF92FF920F931F9344
:10089000CF93DF937C016A01EB0100E010E00C15BF
:1008A0001D0571F06991D701ED91FC910190F081E6
:1008B000E02DC7010995892B19F00F5F1F4FEFCF6E
:1008C000C801DF91CF911F910F91FF90EF90DF90C2
:1008D000CF9008956115710581F0DB010D90002026
:1008E000E9F7AD0141505109461B570BDC01ED9171
:1008F000FC910280F381E02D099480E090E008955E
:100900006EE171E00C946A040F931F93CF93DF9311
:10091000EC010E946A048C01CE010E948004800FC9
:10092000911FDF91CF911F910F910895A1E21A2E8F
:10093000AA1BBB1BFD010DC0AA1FBB1FEE1FFF1F83
:10094000A217B307E407F50720F0A21BB30BE40BD3
:10095000F50B661F771F881F991F1A9469F760951A
:100960007095809590959B01AC01BD01CF010895D4
:10097000EE0FFF1F0590F491E02D0994F894FFCF3E
:10098000627574746F6E2070757368656400000022
:1009900000007B034204FD021603080359030D0AFD
:1009A000006E616E00696E66006F7666002E000054
:00000001FF
